{
  "transactions": [
    {
      "hash": "0x72f9c0c99e3973ad11d26dbd017b0fa6545055db9558a3ebf7843a1355a5a787",
      "transactionType": "CALL",
      "contractName": null,
      "contractAddress": "0x990e7e46d8c0537938a46d4a8fac805d28567c3d",
      "function": "registerAsOperator(uint256,(address,address,uint32),string)",
      "arguments": [
        "1",
        "(0x53f54B3fc66831AFf6900A92C787809D7adbe91b, 0x0000000000000000000000000000000000000000, 0)",
        "\"https://raw.githubusercontent.com/klassicd/eigenlayer-operator/main/operator/metadata.json\""
      ],
      "transaction": {
        "from": "0x53f54b3fc66831aff6900a92c787809d7adbe91b",
        "to": "0x990e7e46d8c0537938a46d4a8fac805d28567c3d",
        "gas": "0x36121",
        "value": "0x0",
        "input": "0x92d59d3f000000000000000000000000000000000000000000000000000000000000000100000000000000000000000053f54b3fc66831aff6900a92c787809d7adbe91b0000000000000000000000000000000000000000000000000000000000000000000000000000000000000000000000000000000000000000000000000000000000000000000000000000000000000000000000000000000000000000000000a0000000000000000000000000000000000000000000000000000000000000005a68747470733a2f2f7261772e67697468756275736572636f6e74656e742e636f6d2f6b6c6173736963642f656967656e6c617965722d6f70657261746f722f6d61696e2f6f70657261746f722f6d657461646174612e6a736f6e000000000000",
        "nonce": "0x1e",
        "chainId": "0x1"
      },
      "additionalContracts": [],
      "isFixedGasLimit": false
    }
  ],
  "receipts": [
    {
      "status": "0x1",
      "cumulativeGasUsed": "0x1163ecc",
      "logs": [
        {
          "address": "0x39053d51b77dc0d36036fc1fcc8cb819df8ef37a",
          "topics": [
            "0xfebe5cd24b2cbc7b065b9d0fdeb904461e4afcff57dd57acda1e7832031ba7ac",
            "0x000000000000000000000000eb7f6a60333fdc2c6a48e69111a4286514225e45"
          ],
          "data": "0x00000000000000000000000053f54b3fc66831aff6900a92c787809d7adbe91b00000000000000000000000000000000000000000000000000000000000000000000000000000000000000000000000000000000000000000000000000000000",
          "blockHash": "0x8b7df33f1d370d4af3480482f77c2e0a7da632ac0e264d2d00fad9a6890cade7",
          "blockNumber": "0x13880d2",
          "transactionHash": "0x72f9c0c99e3973ad11d26dbd017b0fa6545055db9558a3ebf7843a1355a5a787",
          "transactionIndex": "0xb4",
          "logIndex": "0x1e8",
          "removed": false
        },
        {
          "address": "0x39053d51b77dc0d36036fc1fcc8cb819df8ef37a",
          "topics": [
            "0xc3ee9f2e5fda98e8066a1f745b2df9285f416fe98cf2559cd21484b3d8743304",
            "0x000000000000000000000000eb7f6a60333fdc2c6a48e69111a4286514225e45",
            "0x000000000000000000000000eb7f6a60333fdc2c6a48e69111a4286514225e45"
          ],
          "data": "0x",
          "blockHash": "0x8b7df33f1d370d4af3480482f77c2e0a7da632ac0e264d2d00fad9a6890cade7",
          "blockNumber": "0x13880d2",
          "transactionHash": "0x72f9c0c99e3973ad11d26dbd017b0fa6545055db9558a3ebf7843a1355a5a787",
          "transactionIndex": "0xb4",
          "logIndex": "0x1e9",
          "removed": false
        },
        {
          "address": "0x39053d51b77dc0d36036fc1fcc8cb819df8ef37a",
          "topics": [
            "0x8e8485583a2310d41f7c82b9427d0bd49bad74bb9cff9d3402a29d8f9b28a0e2",
            "0x000000000000000000000000eb7f6a60333fdc2c6a48e69111a4286514225e45"
          ],
          "data": "0x00000000000000000000000053f54b3fc66831aff6900a92c787809d7adbe91b00000000000000000000000000000000000000000000000000000000000000000000000000000000000000000000000000000000000000000000000000000000",
          "blockHash": "0x8b7df33f1d370d4af3480482f77c2e0a7da632ac0e264d2d00fad9a6890cade7",
          "blockNumber": "0x13880d2",
          "transactionHash": "0x72f9c0c99e3973ad11d26dbd017b0fa6545055db9558a3ebf7843a1355a5a787",
          "transactionIndex": "0xb4",
          "logIndex": "0x1ea",
          "removed": false
        },
        {
          "address": "0x39053d51b77dc0d36036fc1fcc8cb819df8ef37a",
          "topics": [
            "0x02a919ed0e2acad1dd90f17ef2fa4ae5462ee1339170034a8531cca4b6708090",
            "0x000000000000000000000000eb7f6a60333fdc2c6a48e69111a4286514225e45"
          ],
          "data": "0x0000000000000000000000000000000000000000000000000000000000000020000000000000000000000000000000000000000000000000000000000000005a68747470733a2f2f7261772e67697468756275736572636f6e74656e742e636f6d2f6b6c6173736963642f656967656e6c617965722d6f70657261746f722f6d61696e2f6f70657261746f722f6d657461646174612e6a736f6e000000000000",
          "blockHash": "0x8b7df33f1d370d4af3480482f77c2e0a7da632ac0e264d2d00fad9a6890cade7",
          "blockNumber": "0x13880d2",
          "transactionHash": "0x72f9c0c99e3973ad11d26dbd017b0fa6545055db9558a3ebf7843a1355a5a787",
          "transactionIndex": "0xb4",
          "logIndex": "0x1eb",
          "removed": false
        },
        {
          "address": "0x990e7e46d8c0537938a46d4a8fac805d28567c3d",
          "topics": [
            "0x702cca91e590bd527801145cb928b821c3bd36196de46ffff13b380d3caa86b4",
            "0x0000000000000000000000000000000000000000000000000000000000000001"
          ],
          "data": "0x00000000000000000000000053f54b3fc66831aff6900a92c787809d7adbe91b00000000000000000000000000000000000000000000000000000000000000000000000000000000000000000000000000000000000000000000000000000000",
          "blockHash": "0x8b7df33f1d370d4af3480482f77c2e0a7da632ac0e264d2d00fad9a6890cade7",
          "blockNumber": "0x13880d2",
          "transactionHash": "0x72f9c0c99e3973ad11d26dbd017b0fa6545055db9558a3ebf7843a1355a5a787",
          "transactionIndex": "0xb4",
          "logIndex": "0x1ec",
          "removed": false
        }
      ],
      "logsBloom": "0x00000011008000020100000000000000000000000000000000004001000000000000000000000000000000000000000000000000000000000000000000040000000000000000000000000000000000000010000000040000000000000000000000000000000084000000000000000000000000000000200000200000000000000000000000000000100000000000000000000000000000000000000000000000008000000100000000000001000020000000000000400000201000000000000000000000101000000000000000000000000000020000000000000000000040000000000000000000000000000000000000000080000000000000000000000000",
      "type": "0x2",
      "transactionHash": "0x72f9c0c99e3973ad11d26dbd017b0fa6545055db9558a3ebf7843a1355a5a787",
      "transactionIndex": "0xb4",
      "blockHash": "0x8b7df33f1d370d4af3480482f77c2e0a7da632ac0e264d2d00fad9a6890cade7",
      "blockNumber": "0x13880d2",
      "gasUsed": "0x24f8b",
      "effectiveGasPrice": "0x6cc40aed",
      "from": "0x53f54b3fc66831aff6900a92c787809d7adbe91b",
      "to": "0x990e7e46d8c0537938a46d4a8fac805d28567c3d",
      "contractAddress": null
    }
  ],
  "libraries": [],
  "pending": [],
  "returns": {},
  "timestamp": 1723076042,
  "chain": 1,
  "commit": "b831c5f"
}