{
  "transactions": [
    {
      "hash": "0x31aa6a736ad655d1328fda799042f7dc429edb86d884e775209270cf73b8f6bd",
      "transactionType": "CALL",
      "contractName": null,
      "contractAddress": "0xb55002757e03557c7d4d21ea5c5520579333a515",
      "function": "updateAvsWhitelist(uint256,address,bool)",
      "arguments": [
        "1",
        "0x53012C69A189cfA2D9d29eb6F19B32e0A2EA3490",
        "true"
      ],
      "transaction": {
        "from": "0x53f54b3fc66831aff6900a92c787809d7adbe91b",
        "to": "0xb55002757e03557c7d4d21ea5c5520579333a515",
        "gas": "0x17f9d",
        "value": "0x0",
        "input": "0xccc0693b000000000000000000000000000000000000000000000000000000000000000100000000000000000000000053012c69a189cfa2d9d29eb6f19b32e0a2ea34900000000000000000000000000000000000000000000000000000000000000001",
        "nonce": "0x2a",
        "chainId": "0x4268"
      },
      "additionalContracts": [],
      "isFixedGasLimit": false
    }
  ],
  "receipts": [
    {
      "status": "0x1",
      "cumulativeGasUsed": "0x412a62",
      "logs": [
        {
          "address": "0xb55002757e03557c7d4d21ea5c5520579333a515",
          "topics": [
            "0x0cf8cb3148c96f3b418d80fc77f713f454ab17bfa4692f340ddd3057e65a78ac",
            "0x0000000000000000000000000000000000000000000000000000000000000001"
          ],
          "data": "0x00000000000000000000000053012c69a189cfa2d9d29eb6f19b32e0a2ea34900000000000000000000000000000000000000000000000000000000000000001",
          "blockHash": "0x0e2eb6eba886f2830fb62b1daf45ece38cc81d7489bece153834f2a9329ac441",
          "blockNumber": "0x1f8a34",
          "transactionHash": "0x31aa6a736ad655d1328fda799042f7dc429edb86d884e775209270cf73b8f6bd",
          "transactionIndex": "0x11",
          "logIndex": "0x3c",
          "removed": false
        }
      ],
      "logsBloom": "0x00000000000000000000000000000000000000000000000000000000000000000000000000000000000000000000000000000000200000000000000000040000000000000000000000000000000000000000000000040000000000000000000000000000000000000000000000000000000000000000000000000000000000000000000000000000000000000000000000000000000000000000000000000000000000000000000000000000000000000000004000000000000000000000000000000000000000000000000400000000000000000080000000000000000040010000000000000000000000000000000000000000000800000000000000000000",
      "type": "0x2",
      "transactionHash": "0x31aa6a736ad655d1328fda799042f7dc429edb86d884e775209270cf73b8f6bd",
      "transactionIndex": "0x11",
      "blockHash": "0x0e2eb6eba886f2830fb62b1daf45ece38cc81d7489bece153834f2a9329ac441",
      "blockNumber": "0x1f8a34",
      "gasUsed": "0x115bc",
      "effectiveGasPrice": "0xee82f",
      "from": "0x53f54b3fc66831aff6900a92c787809d7adbe91b",
      "to": "0xb55002757e03557c7d4d21ea5c5520579333a515",
      "contractAddress": null
    }
  ],
  "libraries": [],
  "pending": [],
  "returns": {},
  "timestamp": 1722789932,
  "chain": 17000,
  "commit": "0c51ecf"
}