{
  "transactions": [
    {
      "hash": "0xff677e8a49df7be8ea2eaf46a1b244da1fc20cef2561846552cf57c023b43dfd",
      "transactionType": "CALL",
      "contractName": null,
      "contractAddress": "0x990e7e46d8c0537938a46d4a8fac805d28567c3d",
      "function": "modifyOperatorDetails(uint256,(address,address,uint32))",
      "arguments": [
        "1",
        "(0xA553800115b9E89ADbB6323bb1580cb6C2952fbC, 0x0000000000000000000000000000000000000000, 0)"
      ],
      "transaction": {
        "from": "0x53f54b3fc66831aff6900a92c787809d7adbe91b",
        "to": "0x990e7e46d8c0537938a46d4a8fac805d28567c3d",
        "gas": "0x190b5",
        "value": "0x0",
        "input": "0x8acb29da0000000000000000000000000000000000000000000000000000000000000001000000000000000000000000a553800115b9e89adbb6323bb1580cb6c2952fbc00000000000000000000000000000000000000000000000000000000000000000000000000000000000000000000000000000000000000000000000000000000",
        "nonce": "0x23",
        "chainId": "0x1"
      },
      "additionalContracts": [],
      "isFixedGasLimit": false
    }
  ],
  "receipts": [
    {
      "status": "0x1",
      "cumulativeGasUsed": "0x93eb51",
      "logs": [
        {
          "address": "0x39053d51b77dc0d36036fc1fcc8cb819df8ef37a",
          "topics": [
            "0xfebe5cd24b2cbc7b065b9d0fdeb904461e4afcff57dd57acda1e7832031ba7ac",
            "0x000000000000000000000000eb7f6a60333fdc2c6a48e69111a4286514225e45"
          ],
          "data": "0x000000000000000000000000a553800115b9e89adbb6323bb1580cb6c2952fbc00000000000000000000000000000000000000000000000000000000000000000000000000000000000000000000000000000000000000000000000000000000",
          "blockHash": "0x7e215899d6c0a8234a1d23260683ae11712c4a077a0e1c1b0a9d2f16c2a8bbe7",
          "blockNumber": "0x139b1bd",
          "transactionHash": "0xff677e8a49df7be8ea2eaf46a1b244da1fc20cef2561846552cf57c023b43dfd",
          "transactionIndex": "0x4f",
          "logIndex": "0x2bb",
          "removed": false
        },
        {
          "address": "0x990e7e46d8c0537938a46d4a8fac805d28567c3d",
          "topics": [
            "0xbc072201e8c4896adac46a042af73400cf0b7d3b4ff58cbf14877736a1d551cb",
            "0x0000000000000000000000000000000000000000000000000000000000000001"
          ],
          "data": "0x000000000000000000000000a553800115b9e89adbb6323bb1580cb6c2952fbc00000000000000000000000000000000000000000000000000000000000000000000000000000000000000000000000000000000000000000000000000000000",
          "blockHash": "0x7e215899d6c0a8234a1d23260683ae11712c4a077a0e1c1b0a9d2f16c2a8bbe7",
          "blockNumber": "0x139b1bd",
          "transactionHash": "0xff677e8a49df7be8ea2eaf46a1b244da1fc20cef2561846552cf57c023b43dfd",
          "transactionIndex": "0x4f",
          "logIndex": "0x2bc",
          "removed": false
        }
      ],
      "logsBloom": "0x00000000008000000000000000000000000000000000000000004000000000000000000000000000000000000000000000000000000000000000000002040000000000000000000000000000000000000010000000040000000000000000000000000000000080000000000000000000000000000000000000000000000000000000000000000000000000000000000000000000000000000200000000000000008000000500000000000001000020000000000000400000201000000000000000000000000000000000000000000000000000020000000000000000000040000000000000000000000000000000000000000000000000000000000000000000",
      "type": "0x2",
      "transactionHash": "0xff677e8a49df7be8ea2eaf46a1b244da1fc20cef2561846552cf57c023b43dfd",
      "transactionIndex": "0x4f",
      "blockHash": "0x7e215899d6c0a8234a1d23260683ae11712c4a077a0e1c1b0a9d2f16c2a8bbe7",
      "blockNumber": "0x139b1bd",
      "gasUsed": "0x1221c",
      "effectiveGasPrice": "0x4390020e",
      "from": "0x53f54b3fc66831aff6900a92c787809d7adbe91b",
      "to": "0x990e7e46d8c0537938a46d4a8fac805d28567c3d",
      "contractAddress": null
    }
  ],
  "libraries": [],
  "pending": [],
  "returns": {},
  "timestamp": 1724017327,
  "chain": 1,
  "commit": "26b93e1"
}