{
  "transactions": [
    {
      "hash": "0x719513e667f3a3409350698a6176500237dfc82ad14e78b462003e178d5fda76",
      "transactionType": "CALL",
      "contractName": null,
      "contractAddress": "0xb55002757e03557c7d4d21ea5c5520579333a515",
      "function": "registerAsOperator(uint256,(address,address,uint32),string)",
      "arguments": [
        "1",
        "(0x53f54B3fc66831AFf6900A92C787809D7adbe91b, 0x0000000000000000000000000000000000000000, 0)",
        "\"https://raw.githubusercontent.com/klassicd/eigenlayer-operator/main/operator/metadata.json\""
      ],
      "transaction": {
        "from": "0x53f54b3fc66831aff6900a92c787809d7adbe91b",
        "to": "0xb55002757e03557c7d4d21ea5c5520579333a515",
        "gas": "0x3314d",
        "value": "0x0",
        "input": "0x92d59d3f000000000000000000000000000000000000000000000000000000000000000100000000000000000000000053f54b3fc66831aff6900a92c787809d7adbe91b0000000000000000000000000000000000000000000000000000000000000000000000000000000000000000000000000000000000000000000000000000000000000000000000000000000000000000000000000000000000000000000000a0000000000000000000000000000000000000000000000000000000000000005a68747470733a2f2f7261772e67697468756275736572636f6e74656e742e636f6d2f6b6c6173736963642f656967656e6c617965722d6f70657261746f722f6d61696e2f6f70657261746f722f6d657461646174612e6a736f6e000000000000",
        "nonce": "0x22",
        "chainId": "0x4268"
      },
      "additionalContracts": [],
      "isFixedGasLimit": false
    }
  ],
  "receipts": [
    {
      "status": "0x1",
      "cumulativeGasUsed": "0x8dd61",
      "logs": [
        {
          "address": "0xa44151489861fe9e3055d95adc98fbd462b948e7",
          "topics": [
            "0xfebe5cd24b2cbc7b065b9d0fdeb904461e4afcff57dd57acda1e7832031ba7ac",
            "0x000000000000000000000000d2ee637b9670bace791cd9eca32c3a9c58454bbc"
          ],
          "data": "0x00000000000000000000000053f54b3fc66831aff6900a92c787809d7adbe91b00000000000000000000000000000000000000000000000000000000000000000000000000000000000000000000000000000000000000000000000000000000",
          "blockHash": "0xd72b9d7e4252487d9efcc55c204bb28d91fda2f7836274ea41cef75768a41b9b",
          "blockNumber": "0x1f782e",
          "transactionHash": "0x719513e667f3a3409350698a6176500237dfc82ad14e78b462003e178d5fda76",
          "transactionIndex": "0x7",
          "logIndex": "0x8",
          "removed": false
        },
        {
          "address": "0xa44151489861fe9e3055d95adc98fbd462b948e7",
          "topics": [
            "0xc3ee9f2e5fda98e8066a1f745b2df9285f416fe98cf2559cd21484b3d8743304",
            "0x000000000000000000000000d2ee637b9670bace791cd9eca32c3a9c58454bbc",
            "0x000000000000000000000000d2ee637b9670bace791cd9eca32c3a9c58454bbc"
          ],
          "data": "0x",
          "blockHash": "0xd72b9d7e4252487d9efcc55c204bb28d91fda2f7836274ea41cef75768a41b9b",
          "blockNumber": "0x1f782e",
          "transactionHash": "0x719513e667f3a3409350698a6176500237dfc82ad14e78b462003e178d5fda76",
          "transactionIndex": "0x7",
          "logIndex": "0x9",
          "removed": false
        },
        {
          "address": "0xa44151489861fe9e3055d95adc98fbd462b948e7",
          "topics": [
            "0x8e8485583a2310d41f7c82b9427d0bd49bad74bb9cff9d3402a29d8f9b28a0e2",
            "0x000000000000000000000000d2ee637b9670bace791cd9eca32c3a9c58454bbc"
          ],
          "data": "0x00000000000000000000000053f54b3fc66831aff6900a92c787809d7adbe91b00000000000000000000000000000000000000000000000000000000000000000000000000000000000000000000000000000000000000000000000000000000",
          "blockHash": "0xd72b9d7e4252487d9efcc55c204bb28d91fda2f7836274ea41cef75768a41b9b",
          "blockNumber": "0x1f782e",
          "transactionHash": "0x719513e667f3a3409350698a6176500237dfc82ad14e78b462003e178d5fda76",
          "transactionIndex": "0x7",
          "logIndex": "0xa",
          "removed": false
        },
        {
          "address": "0xa44151489861fe9e3055d95adc98fbd462b948e7",
          "topics": [
            "0x02a919ed0e2acad1dd90f17ef2fa4ae5462ee1339170034a8531cca4b6708090",
            "0x000000000000000000000000d2ee637b9670bace791cd9eca32c3a9c58454bbc"
          ],
          "data": "0x0000000000000000000000000000000000000000000000000000000000000020000000000000000000000000000000000000000000000000000000000000005a68747470733a2f2f7261772e67697468756275736572636f6e74656e742e636f6d2f6b6c6173736963642f656967656e6c617965722d6f70657261746f722f6d61696e2f6f70657261746f722f6d657461646174612e6a736f6e000000000000",
          "blockHash": "0xd72b9d7e4252487d9efcc55c204bb28d91fda2f7836274ea41cef75768a41b9b",
          "blockNumber": "0x1f782e",
          "transactionHash": "0x719513e667f3a3409350698a6176500237dfc82ad14e78b462003e178d5fda76",
          "transactionIndex": "0x7",
          "logIndex": "0xb",
          "removed": false
        },
        {
          "address": "0xb55002757e03557c7d4d21ea5c5520579333a515",
          "topics": [
            "0x702cca91e590bd527801145cb928b821c3bd36196de46ffff13b380d3caa86b4",
            "0x0000000000000000000000000000000000000000000000000000000000000001"
          ],
          "data": "0x00000000000000000000000053f54b3fc66831aff6900a92c787809d7adbe91b00000000000000000000000000000000000000000000000000000000000000000000000000000000000000000000000000000000000000000000000000000000",
          "blockHash": "0xd72b9d7e4252487d9efcc55c204bb28d91fda2f7836274ea41cef75768a41b9b",
          "blockNumber": "0x1f782e",
          "transactionHash": "0x719513e667f3a3409350698a6176500237dfc82ad14e78b462003e178d5fda76",
          "transactionIndex": "0x7",
          "logIndex": "0xc",
          "removed": false
        }
      ],
      "logsBloom": "0x00000011008000020100000000000000000000000000000000000001000000000000010000000000000000000000000000000000000000000000000000040000000000000000000000000000000000000010000000040000001000000000000000000000000004001000000000000000000000000000200000200000000000000000000000000000100000000000000000000000000000000000000000000000000000000000000000000000000000000000004000400000080000000000000000000000101000000000000400000000080000000000004000000000000040010000000000000000000000000000000000000080000000000000000000000000",
      "type": "0x2",
      "transactionHash": "0x719513e667f3a3409350698a6176500237dfc82ad14e78b462003e178d5fda76",
      "transactionIndex": "0x7",
      "blockHash": "0xd72b9d7e4252487d9efcc55c204bb28d91fda2f7836274ea41cef75768a41b9b",
      "blockNumber": "0x1f782e",
      "gasUsed": "0x24fb7",
      "effectiveGasPrice": "0x11dfa7e",
      "from": "0x53f54b3fc66831aff6900a92c787809d7adbe91b",
      "to": "0xb55002757e03557c7d4d21ea5c5520579333a515",
      "contractAddress": null
    }
  ],
  "libraries": [],
  "pending": [],
  "returns": {},
  "timestamp": 1722730457,
  "chain": 17000,
  "commit": "a659098"
}