{
  "transactions": [
    {
      "hash": "0x54b80fd5f7f278937328abf18ee1512bcad062bdc76b07b56bbeec8d32d6fa5f",
      "transactionType": "CALL",
      "contractName": null,
      "contractAddress": "0x0360338a5d1bee808fe3aa44f6e5f33c03b0bc9c",
      "function": "registerAsOperator(uint256,(address,address,uint32),string)",
      "arguments": [
        "1",
        "(0x53f54B3fc66831AFf6900A92C787809D7adbe91b, 0x0000000000000000000000000000000000000000, 0)",
        "\"https://raw.githubusercontent.com/solidarity-dao/eigenlayer-operator/main/operator/metadata.json\""
      ],
      "transaction": {
        "from": "0x53f54b3fc66831aff6900a92c787809d7adbe91b",
        "to": "0x0360338a5d1bee808fe3aa44f6e5f33c03b0bc9c",
        "gas": "0x3614e",
        "value": "0x0",
        "input": "0x92d59d3f000000000000000000000000000000000000000000000000000000000000000100000000000000000000000053f54b3fc66831aff6900a92c787809d7adbe91b0000000000000000000000000000000000000000000000000000000000000000000000000000000000000000000000000000000000000000000000000000000000000000000000000000000000000000000000000000000000000000000000a0000000000000000000000000000000000000000000000000000000000000006068747470733a2f2f7261772e67697468756275736572636f6e74656e742e636f6d2f736f6c696461726974792d64616f2f656967656e6c617965722d6f70657261746f722f6d61696e2f6f70657261746f722f6d657461646174612e6a736f6e",
        "nonce": "0x12",
        "chainId": "0x4268"
      },
      "additionalContracts": [],
      "isFixedGasLimit": false
    }
  ],
  "receipts": [
    {
      "status": "0x1",
      "cumulativeGasUsed": "0x13f310",
      "logs": [
        {
          "address": "0xa44151489861fe9e3055d95adc98fbd462b948e7",
          "topics": [
            "0xfebe5cd24b2cbc7b065b9d0fdeb904461e4afcff57dd57acda1e7832031ba7ac",
            "0x000000000000000000000000645612c344af7e0cd5be67d2efb2589c90608beb"
          ],
          "data": "0x00000000000000000000000053f54b3fc66831aff6900a92c787809d7adbe91b00000000000000000000000000000000000000000000000000000000000000000000000000000000000000000000000000000000000000000000000000000000",
          "blockHash": "0x4bd4919b7a99ea05f1cbd0b60f9f60fc7f0b7673d589ba1f12e7da1da87be1a7",
          "blockNumber": "0x1e7416",
          "transactionHash": "0x54b80fd5f7f278937328abf18ee1512bcad062bdc76b07b56bbeec8d32d6fa5f",
          "transactionIndex": "0x13",
          "logIndex": "0x1f",
          "removed": false
        },
        {
          "address": "0xa44151489861fe9e3055d95adc98fbd462b948e7",
          "topics": [
            "0xc3ee9f2e5fda98e8066a1f745b2df9285f416fe98cf2559cd21484b3d8743304",
            "0x000000000000000000000000645612c344af7e0cd5be67d2efb2589c90608beb",
            "0x000000000000000000000000645612c344af7e0cd5be67d2efb2589c90608beb"
          ],
          "data": "0x",
          "blockHash": "0x4bd4919b7a99ea05f1cbd0b60f9f60fc7f0b7673d589ba1f12e7da1da87be1a7",
          "blockNumber": "0x1e7416",
          "transactionHash": "0x54b80fd5f7f278937328abf18ee1512bcad062bdc76b07b56bbeec8d32d6fa5f",
          "transactionIndex": "0x13",
          "logIndex": "0x20",
          "removed": false
        },
        {
          "address": "0xa44151489861fe9e3055d95adc98fbd462b948e7",
          "topics": [
            "0x8e8485583a2310d41f7c82b9427d0bd49bad74bb9cff9d3402a29d8f9b28a0e2",
            "0x000000000000000000000000645612c344af7e0cd5be67d2efb2589c90608beb"
          ],
          "data": "0x00000000000000000000000053f54b3fc66831aff6900a92c787809d7adbe91b00000000000000000000000000000000000000000000000000000000000000000000000000000000000000000000000000000000000000000000000000000000",
          "blockHash": "0x4bd4919b7a99ea05f1cbd0b60f9f60fc7f0b7673d589ba1f12e7da1da87be1a7",
          "blockNumber": "0x1e7416",
          "transactionHash": "0x54b80fd5f7f278937328abf18ee1512bcad062bdc76b07b56bbeec8d32d6fa5f",
          "transactionIndex": "0x13",
          "logIndex": "0x21",
          "removed": false
        },
        {
          "address": "0xa44151489861fe9e3055d95adc98fbd462b948e7",
          "topics": [
            "0x02a919ed0e2acad1dd90f17ef2fa4ae5462ee1339170034a8531cca4b6708090",
            "0x000000000000000000000000645612c344af7e0cd5be67d2efb2589c90608beb"
          ],
          "data": "0x0000000000000000000000000000000000000000000000000000000000000020000000000000000000000000000000000000000000000000000000000000006068747470733a2f2f7261772e67697468756275736572636f6e74656e742e636f6d2f736f6c696461726974792d64616f2f656967656e6c617965722d6f70657261746f722f6d61696e2f6f70657261746f722f6d657461646174612e6a736f6e",
          "blockHash": "0x4bd4919b7a99ea05f1cbd0b60f9f60fc7f0b7673d589ba1f12e7da1da87be1a7",
          "blockNumber": "0x1e7416",
          "transactionHash": "0x54b80fd5f7f278937328abf18ee1512bcad062bdc76b07b56bbeec8d32d6fa5f",
          "transactionIndex": "0x13",
          "logIndex": "0x22",
          "removed": false
        },
        {
          "address": "0x0360338a5d1bee808fe3aa44f6e5f33c03b0bc9c",
          "topics": [
            "0x702cca91e590bd527801145cb928b821c3bd36196de46ffff13b380d3caa86b4",
            "0x0000000000000000000000000000000000000000000000000000000000000001"
          ],
          "data": "0x00000000000000000000000053f54b3fc66831aff6900a92c787809d7adbe91b00000000000000000000000000000000000000000000000000000000000000000000000000000000000000000000000000000000000000000000000000000000",
          "blockHash": "0x4bd4919b7a99ea05f1cbd0b60f9f60fc7f0b7673d589ba1f12e7da1da87be1a7",
          "blockNumber": "0x1e7416",
          "transactionHash": "0x54b80fd5f7f278937328abf18ee1512bcad062bdc76b07b56bbeec8d32d6fa5f",
          "transactionIndex": "0x13",
          "logIndex": "0x23",
          "removed": false
        }
      ],
      "logsBloom": "0x000000110080000201000000000000000000100000000000000000010000000000000100000000000000000000020000000000000000000000000000000c0000000000000000002000000000000000000010000000040000000000000000000000000000000004000000000000000000000000000000200000200000000000000000000000000000100000000000000000000000000000000000000000000000000000000001000000000000000000000000000000400000000000000000000000000000101000000000000000000000080010000000004000000000000040000000000000000000000000000000000000000080000000000000000000000000",
      "type": "0x2",
      "transactionHash": "0x54b80fd5f7f278937328abf18ee1512bcad062bdc76b07b56bbeec8d32d6fa5f",
      "transactionIndex": "0x13",
      "blockHash": "0x4bd4919b7a99ea05f1cbd0b60f9f60fc7f0b7673d589ba1f12e7da1da87be1a7",
      "blockNumber": "0x1e7416",
      "gasUsed": "0x24faa",
      "effectiveGasPrice": "0x1dcda830",
      "from": "0x53f54b3fc66831aff6900a92c787809d7adbe91b",
      "to": "0x0360338a5d1bee808fe3aa44f6e5f33c03b0bc9c",
      "contractAddress": null
    }
  ],
  "libraries": [],
  "pending": [],
  "returns": {},
  "timestamp": 1721869984,
  "chain": 17000,
  "commit": "5723c08"
}