{
  "transactions": [
    {
      "hash": "0xa18a1c4a630276ac665b99923514b6aef45039bf4df7437ba233322e09e034c4",
      "transactionType": "CALL",
      "contractName": null,
      "contractAddress": "0x990e7e46d8c0537938a46d4a8fac805d28567c3d",
      "function": "updateAvsWhitelist(uint256,address,bool)",
      "arguments": [
        "1",
        "0x0BAAc79acD45A023E19345c352d8a7a83C4e5656",
        "true"
      ],
      "transaction": {
        "from": "0x53f54b3fc66831aff6900a92c787809d7adbe91b",
        "to": "0x990e7e46d8c0537938a46d4a8fac805d28567c3d",
        "gas": "0x17f9d",
        "value": "0x0",
        "input": "0xccc0693b00000000000000000000000000000000000000000000000000000000000000010000000000000000000000000baac79acd45a023e19345c352d8a7a83c4e56560000000000000000000000000000000000000000000000000000000000000001",
        "nonce": "0x1f",
        "chainId": "0x1"
      },
      "additionalContracts": [],
      "isFixedGasLimit": false
    }
  ],
  "receipts": [
    {
      "status": "0x1",
      "cumulativeGasUsed": "0xc68c6a",
      "logs": [
        {
          "address": "0x990e7e46d8c0537938a46d4a8fac805d28567c3d",
          "topics": [
            "0x0cf8cb3148c96f3b418d80fc77f713f454ab17bfa4692f340ddd3057e65a78ac",
            "0x0000000000000000000000000000000000000000000000000000000000000001"
          ],
          "data": "0x0000000000000000000000000baac79acd45a023e19345c352d8a7a83c4e56560000000000000000000000000000000000000000000000000000000000000001",
          "blockHash": "0xd93f32b4d8c9518e1acb58de01e9f8679cd25aa7474aacb7e771d021eed17dca",
          "blockNumber": "0x1388183",
          "transactionHash": "0xa18a1c4a630276ac665b99923514b6aef45039bf4df7437ba233322e09e034c4",
          "transactionIndex": "0x8f",
          "logIndex": "0x187",
          "removed": false
        }
      ],
      "logsBloom": "0x00000000000000000000000000000000000000000000000000000000000000000000000000000000000000000000000000000000200000000000000000040000000000000000000000000000000000000000000000040000000000000000000000000000000080000000000000000000000000000000000000000000000000000000000000000000000000000000000000000000000000000000000000000000000000000000000000000001000000000000000000000000001000000000000000000000000000000000000000000000000000000080000000000000000040000000000000000000000000000000000000000000000800000000000000000000",
      "type": "0x2",
      "transactionHash": "0xa18a1c4a630276ac665b99923514b6aef45039bf4df7437ba233322e09e034c4",
      "transactionIndex": "0x8f",
      "blockHash": "0xd93f32b4d8c9518e1acb58de01e9f8679cd25aa7474aacb7e771d021eed17dca",
      "blockNumber": "0x1388183",
      "gasUsed": "0x115bc",
      "effectiveGasPrice": "0x767994b4",
      "from": "0x53f54b3fc66831aff6900a92c787809d7adbe91b",
      "to": "0x990e7e46d8c0537938a46d4a8fac805d28567c3d",
      "contractAddress": null
    }
  ],
  "libraries": [],
  "pending": [],
  "returns": {},
  "timestamp": 1723078179,
  "chain": 1,
  "commit": "3f4526b"
}